{
  "contractName": "ERC721",
  "abi": [
    {
      "inputs": [],
      "stateMutability": "nonpayable",
      "type": "constructor"
    },
    {
      "anonymous": false,
      "inputs": [
        {
          "indexed": true,
          "internalType": "address",
          "name": "_owner",
          "type": "address"
        },
        {
          "indexed": true,
          "internalType": "address",
          "name": "_approved",
          "type": "address"
        },
        {
          "indexed": true,
          "internalType": "uint256",
          "name": "_tokenId",
          "type": "uint256"
        }
      ],
      "name": "Approval",
      "type": "event"
    },
    {
      "anonymous": false,
      "inputs": [
        {
          "indexed": true,
          "internalType": "address",
          "name": "_from",
          "type": "address"
        },
        {
          "indexed": true,
          "internalType": "address",
          "name": "_to",
          "type": "address"
        },
        {
          "indexed": true,
          "internalType": "uint256",
          "name": "_tokenId",
          "type": "uint256"
        }
      ],
      "name": "Transfer",
      "type": "event"
    },
    {
      "inputs": [
        {
          "internalType": "bytes4",
          "name": "interfaceID",
          "type": "bytes4"
        }
      ],
      "name": "supportsInterface",
      "outputs": [
        {
          "internalType": "bool",
          "name": "",
          "type": "bool"
        }
      ],
      "stateMutability": "view",
      "type": "function"
    },
    {
      "inputs": [
        {
          "internalType": "address",
          "name": "_owner",
          "type": "address"
        }
      ],
      "name": "balanceOf",
      "outputs": [
        {
          "internalType": "uint256",
          "name": "",
          "type": "uint256"
        }
      ],
      "stateMutability": "view",
      "type": "function"
    },
    {
      "inputs": [
        {
          "internalType": "uint256",
          "name": "_tokenId",
          "type": "uint256"
        }
      ],
      "name": "ownerOf",
      "outputs": [
        {
          "internalType": "address",
          "name": "",
          "type": "address"
        }
      ],
      "stateMutability": "view",
      "type": "function"
    },
    {
      "inputs": [
        {
          "internalType": "address",
          "name": "_from",
          "type": "address"
        },
        {
          "internalType": "address",
          "name": "_to",
          "type": "address"
        },
        {
          "internalType": "uint256",
          "name": "_tokenId",
          "type": "uint256"
        }
      ],
      "name": "transferFrom",
      "outputs": [],
      "stateMutability": "nonpayable",
      "type": "function"
    },
    {
      "inputs": [
        {
          "internalType": "address",
          "name": "_to",
          "type": "address"
        },
        {
          "internalType": "uint256",
          "name": "tokenId",
          "type": "uint256"
        }
      ],
      "name": "aprrove",
      "outputs": [],
      "stateMutability": "nonpayable",
      "type": "function"
    }
  ],
  "bytecode": "0x608060405234801561001057600080fd5b506100847f22c82707ba960a14c7592ffb6b8cfaa073fed0048a84cc7fa41f6b5bd8e7f2e47f3a6eb71757dfc6e784c1459d26270140c2c147d95ca985c80026fc5301c3eca17f8a7e378434598edc36d108689a030cbc9d7d465de4f74c71bae1028eed6a881b181861008960201b60201c565b6101db565b63ffffffff60e01b817bffffffffffffffffffffffffffffffffffffffffffffffffffffffff191614156100f2576040517f08c379a00000000000000000000000000000000000000000000000000000000081526004016100e9906101bb565b60405180910390fd5b6001600080837bffffffffffffffffffffffffffffffffffffffffffffffffffffffff19167bffffffffffffffffffffffffffffffffffffffffffffffffffffffff1916815260200190815260200160002060006101000a81548160ff02191690831515021790555050565b600082825260208201905092915050565b7f496e74657266617a206e6f20646973706f6e69626c6500000000000000000000600082015250565b60006101a560168361015e565b91506101b08261016f565b602082019050919050565b600060208201905081810360008301526101d481610198565b9050919050565b610e8a806101ea6000396000f3fe608060405234801561001057600080fd5b50600436106100575760003560e01c806301ffc9a71461005c57806323b872dd1461008c5780636352211e146100a857806370a08231146100d8578063d3490a6414610108575b600080fd5b61007660048036038101906100719190610858565b610124565b60405161008391906108a0565b60405180910390f35b6100a660048036038101906100a1919061094f565b61018b565b005b6100c260048036038101906100bd91906109a2565b6101ae565b6040516100cf91906109de565b60405180910390f35b6100f260048036038101906100ed91906109f9565b610260565b6040516100ff9190610a35565b60405180910390f35b610122600480360381019061011d9190610a50565b610318565b005b6000806000837bffffffffffffffffffffffffffffffffffffffffffffffffffffffff19167bffffffffffffffffffffffffffffffffffffffffffffffffffffffff1916815260200190815260200160002060009054906101000a900460ff169050919050565b61019533826104b4565b61019e57600080fd5b6101a9838383610543565b505050565b6000806001600084815260200190815260200160002060009054906101000a900473ffffffffffffffffffffffffffffffffffffffff169050600073ffffffffffffffffffffffffffffffffffffffff168173ffffffffffffffffffffffffffffffffffffffff161415610257576040517f08c379a000000000000000000000000000000000000000000000000000000000815260040161024e90610b13565b60405180910390fd5b80915050919050565b60008073ffffffffffffffffffffffffffffffffffffffff168273ffffffffffffffffffffffffffffffffffffffff1614156102d1576040517f08c379a00000000000000000000000000000000000000000000000000000000081526004016102c890610b13565b60405180910390fd5b600260008373ffffffffffffffffffffffffffffffffffffffff1673ffffffffffffffffffffffffffffffffffffffff168152602001908152602001600020549050919050565b6000610323826101ae565b90508073ffffffffffffffffffffffffffffffffffffffff168373ffffffffffffffffffffffffffffffffffffffff161415610394576040517f08c379a000000000000000000000000000000000000000000000000000000000815260040161038b90610b7f565b60405180910390fd5b8073ffffffffffffffffffffffffffffffffffffffff163373ffffffffffffffffffffffffffffffffffffffff1614610402576040517f08c379a00000000000000000000000000000000000000000000000000000000081526004016103f990610c11565b60405180910390fd5b826003600084815260200190815260200160002060006101000a81548173ffffffffffffffffffffffffffffffffffffffff021916908373ffffffffffffffffffffffffffffffffffffffff160217905550818373ffffffffffffffffffffffffffffffffffffffff168273ffffffffffffffffffffffffffffffffffffffff167f8c5be1e5ebec7d5bd14f71427d1e84f3dd0314c0f7b2291e5b200ac8c7c3b92560405160405180910390a4505050565b60006104bf82610789565b6104fe576040517f08c379a00000000000000000000000000000000000000000000000000000000081526004016104f590610c7d565b60405180910390fd5b6000610509836101ae565b90508073ffffffffffffffffffffffffffffffffffffffff168473ffffffffffffffffffffffffffffffffffffffff161491505092915050565b600073ffffffffffffffffffffffffffffffffffffffff168273ffffffffffffffffffffffffffffffffffffffff1614156105b3576040517f08c379a00000000000000000000000000000000000000000000000000000000081526004016105aa90610d0f565b60405180910390fd5b8273ffffffffffffffffffffffffffffffffffffffff166105d3826101ae565b73ffffffffffffffffffffffffffffffffffffffff1614610629576040517f08c379a000000000000000000000000000000000000000000000000000000000815260040161062090610d7b565b60405180910390fd5b6001600260008573ffffffffffffffffffffffffffffffffffffffff1673ffffffffffffffffffffffffffffffffffffffff16815260200190815260200160002060008282546106799190610dca565b925050819055506001600260008473ffffffffffffffffffffffffffffffffffffffff1673ffffffffffffffffffffffffffffffffffffffff16815260200190815260200160002060008282546106d09190610dfe565b92505081905550816001600083815260200190815260200160002060006101000a81548173ffffffffffffffffffffffffffffffffffffffff021916908373ffffffffffffffffffffffffffffffffffffffff160217905550808273ffffffffffffffffffffffffffffffffffffffff168473ffffffffffffffffffffffffffffffffffffffff167fddf252ad1be2c89b69c2b068fc378daa952ba7f163c4a11628f55a4df523b3ef60405160405180910390a4505050565b6000806001600084815260200190815260200160002060009054906101000a900473ffffffffffffffffffffffffffffffffffffffff169050600073ffffffffffffffffffffffffffffffffffffffff168173ffffffffffffffffffffffffffffffffffffffff161415915050919050565b600080fd5b60007fffffffff0000000000000000000000000000000000000000000000000000000082169050919050565b61083581610800565b811461084057600080fd5b50565b6000813590506108528161082c565b92915050565b60006020828403121561086e5761086d6107fb565b5b600061087c84828501610843565b91505092915050565b60008115159050919050565b61089a81610885565b82525050565b60006020820190506108b56000830184610891565b92915050565b600073ffffffffffffffffffffffffffffffffffffffff82169050919050565b60006108e6826108bb565b9050919050565b6108f6816108db565b811461090157600080fd5b50565b600081359050610913816108ed565b92915050565b6000819050919050565b61092c81610919565b811461093757600080fd5b50565b60008135905061094981610923565b92915050565b600080600060608486031215610968576109676107fb565b5b600061097686828701610904565b935050602061098786828701610904565b92505060406109988682870161093a565b9150509250925092565b6000602082840312156109b8576109b76107fb565b5b60006109c68482850161093a565b91505092915050565b6109d8816108db565b82525050565b60006020820190506109f360008301846109cf565b92915050565b600060208284031215610a0f57610a0e6107fb565b5b6000610a1d84828501610904565b91505092915050565b610a2f81610919565b82525050565b6000602082019050610a4a6000830184610a26565b92915050565b60008060408385031215610a6757610a666107fb565b5b6000610a7585828601610904565b9250506020610a868582860161093a565b9150509250929050565b600082825260208201905092915050565b7f4552433732313a20437265616e646f20656c20746f6b656e20656e206c61206460008201527f69726563696f6e20696e6578697374656e7465206f2030000000000000000000602082015250565b6000610afd603783610a90565b9150610b0882610aa1565b604082019050919050565b60006020820190508181036000830152610b2c81610af0565b9050919050565b7f4e6f20657320656c206475656e6f2064656c20746f6b656e0000000000000000600082015250565b6000610b69601883610a90565b9150610b7482610b33565b602082019050919050565b60006020820190508181036000830152610b9881610b5c565b9050919050565b7f456c20717565207175696572652068616365722065737465206c6c616d61646f60008201527f206e6f20657320656c206475656e6f2064656c20746f6b656e00000000000000602082015250565b6000610bfb603983610a90565b9150610c0682610b9f565b604082019050919050565b60006020820190508181036000830152610c2a81610bee565b9050919050565b7f456c20746f6b656e206e6f206578697374650000000000000000000000000000600082015250565b6000610c67601283610a90565b9150610c7282610c31565b602082019050919050565b60006020820190508181036000830152610c9681610c5a565b9050919050565b7f4552524f52202d204e6f2073652070756564652074726e61666572697220612060008201527f6c6120646972656363696f6e2030000000000000000000000000000000000000602082015250565b6000610cf9602e83610a90565b9150610d0482610c9d565b604082019050919050565b60006020820190508181036000830152610d2881610cec565b9050919050565b7f446972656363696f6e20696e636f727265637461000000000000000000000000600082015250565b6000610d65601483610a90565b9150610d7082610d2f565b602082019050919050565b60006020820190508181036000830152610d9481610d58565b9050919050565b7f4e487b7100000000000000000000000000000000000000000000000000000000600052601160045260246000fd5b6000610dd582610919565b9150610de083610919565b925082821015610df357610df2610d9b565b5b828203905092915050565b6000610e0982610919565b9150610e1483610919565b9250827fffffffffffffffffffffffffffffffffffffffffffffffffffffffffffffffff03821115610e4957610e48610d9b565b5b82820190509291505056fea264697066735822122066b9b7bc1b5978c347d68e1d19e8efb2e9bb1ea14d993a8e42dde9ccbb74bc1564736f6c634300080a0033",
  "immutableReferences": {},
  "source": "// SPDX-License-Identifier: MIT\r\n\r\npragma solidity ^0.8.0;\r\n\r\n\r\nimport './ERC165.sol';\r\n\r\nimport './interfaces/IERC721.sol';\r\n\r\n/* \r\n    Para crear la funion minting tokens (la funcion que crear los tokens de los NFTs)\r\n    a. NFTs deben de estar direccionados a una direccion(address)\r\n    b. Debemos de tener rastro de los tokens\r\n    c. Debemos d etener un seguimiento de los tokens de la direccion que pertenece al dueno y los ids de los tokens\r\n    d. Debemos de tener seguimiento de cuantos tokens un dueno tiene\r\n    e. Crear los eventos y emitirlos con la funcion emit hacia un transfer log-contract address, ahi es donde estan siendo creados \r\n    con su id\r\n\r\n*/\r\n\r\n//Este contrato esta importado en ERC721Enumerable \r\n\r\ncontract ERC721 is ERC165, IERC721{ \r\n\r\n\r\n    /* lo que deba de ser private se mantiene private, la seguridad es importante */\r\n\r\n    /*Mapeamos los tokens id a los duenos */\r\n\r\n    /*La funcion mapping crear un hash table que es array que asocia valores que pasan por un hash */\r\n    mapping  (uint256 => address) private _tokenOwner;\r\n\r\n    /*Mapeamos cuantos tokens tiene un dueno */\r\n\r\n    mapping (  address => uint256 ) private _OwnedTokensCount;\r\n\r\n    //mapea de los tokensids a las direcciones aprobadas\r\n\r\n    mapping (uint256 => address) private _tokenApprovals;\r\n\r\n\r\n//hay que hacer que el constructor ejecute todas las funciones del contrato de ERC721, ERC721Enumerable y ERC721Metadata\r\n      constructor (){\r\n\r\n        _registerInterface(bytes4(keccak256('balanceOf(bytes4)')^\r\n        keccak256('ownerOf(bytes4)')^keccak256('transferFrom(bytes4)')));\r\n    }\r\n\r\n\r\n\r\n//Para mostrar el balance del dueo\r\n\r\n    function balanceOf(address _owner) public view override returns (uint256){\r\n\r\n        require(_owner != address(0), 'ERC721: Creando el token en la direcion inexistente o 0');\r\n\r\n        return _OwnedTokensCount[_owner];\r\n\r\n    }\r\n\r\n//Para saber quien es el dueno de los NFTs\r\n\r\n    function ownerOf(uint256 _tokenId) public view override returns (address){\r\n\r\n            address owner = _tokenOwner[_tokenId];\r\n\r\n            require(owner != address(0), 'ERC721: Creando el token en la direcion inexistente o 0');\r\n\r\n            return owner;\r\n\r\n\r\n    }\r\n\r\n\r\n/* Esta funcion verifica si el tokenId existe, ingresa al mapeo del tokenowner, no deberia de existir  */\r\n    function _exists(uint256 tokenId) internal view returns(bool){\r\n\r\n        address owner = _tokenOwner [tokenId];\r\n        return owner != address(0);\r\n    }\r\n\r\n    function _mint (address to, uint256 tokenId) internal virtual\r\n    {\r\n/*Requerimos que la direccion no sea 0 */\r\n        require(to != address(0), 'ERC721: Creando el token en la direcion inexistente o 0');\r\n/*Queremos asegurarnos que el token creado no exista antes */\r\n        require(!_exists(tokenId), 'ERC721: El token ya existe');\r\n\r\n/*Agregamos una nueva direccion con su tokenId */\r\n         _tokenOwner[tokenId]=to;\r\n\r\n//Hacemos seguimiento de cada direcccion que esta siendo minting y le sumamos uno al contador\r\n         _OwnedTokensCount[to] += 1;\r\n\r\n         emit Transfer(address(0), to, tokenId);\r\n\r\n        \r\n    }\r\n\r\n\r\n    function _transferFrom(address _from, address _to, uint256 _tokenId) internal{\r\n\r\n        require(_to != address(0),'ERROR - No se puede trnaferir a la direccion 0');\r\n        \r\n        require( ownerOf(_tokenId) == _from,'Direccion incorrecta');\r\n\r\n        _OwnedTokensCount[_from] -= 1;\r\n\r\n        _OwnedTokensCount[_to] += 1;\r\n\r\n        _tokenOwner[_tokenId] = _to;\r\n\r\n        emit Transfer(_from, _to, _tokenId);\r\n\r\n\r\n\r\n    }\r\n\r\n     function transferFrom(address _from, address _to, uint256 _tokenId) override public{\r\n\r\n         require (isApprovedOrOwner(msg.sender,_tokenId ));\r\n            _transferFrom(_from, _to, _tokenId);\r\n\r\n     }\r\n\r\n\r\n//Hay que ver y comparar el archivo de ERC721.sol que se encuentra en el archivo de node_modelus =>openzepplin\r\n//y revisar la funcion isApprovedOrOwner y tratar de adaptarla a nuestro codigo\r\n \r\n    function aprrove (address _to, uint256 tokenId) public{\r\n\r\n            address owner = ownerOf(tokenId);\r\n            require (_to != owner,'No es el dueno del token');\r\n            require(msg.sender == owner,'El que quiere hacer este llamado no es el dueno del token');\r\n\r\n            _tokenApprovals[tokenId]=_to;\r\n            emit Approval(owner,_to,tokenId);\r\n\r\n        }\r\n\r\n     \r\n\r\n\r\n      function isApprovedOrOwner (address spender, uint256 tokenId) internal view returns (bool){\r\n            \r\n            require(_exists(tokenId),'El token no existe');\r\n            address owner = ownerOf(tokenId);\r\n\r\n            return(spender == owner);\r\n\r\n      }\r\n\r\n\r\n\r\n}",
  "sourcePath": "D:\\AAAcursos\\NFTs\\nft_marketplace-My_Code\\src\\contracts\\ERC721.sol",
  "compiler": {
    "name": "solc",
    "version": "0.8.10+commit.fc410830.Emscripten.clang"
  },
  "schemaVersion": "3.4.3",
  "updatedAt": "2021-11-28T20:24:07.867Z",
  "devdoc": {
    "kind": "dev",
    "methods": {
      "supportsInterface(bytes4)": {
        "details": "Interface identification is specified in ERC-165. This function  uses less than 30,000 gas.",
        "params": {
          "interfaceID": "The interface identifier, as specified in ERC-165"
        },
        "returns": {
          "_0": "`true` if the contract implements `interfaceID` and  `interfaceID` is not 0xffffffff, `false` otherwise"
        }
      }
    },
    "version": 1
  },
  "userdoc": {
    "kind": "user",
    "methods": {
      "supportsInterface(bytes4)": {
        "notice": "Query if a contract implements an interface"
      }
    },
    "version": 1
  }
}