{
  "contractName": "ERC721Enumerable",
  "abi": [
    {
      "inputs": [],
      "stateMutability": "nonpayable",
      "type": "constructor"
    },
    {
      "anonymous": false,
      "inputs": [
        {
          "indexed": true,
          "internalType": "address",
          "name": "_owner",
          "type": "address"
        },
        {
          "indexed": true,
          "internalType": "address",
          "name": "_approved",
          "type": "address"
        },
        {
          "indexed": true,
          "internalType": "uint256",
          "name": "_tokenId",
          "type": "uint256"
        }
      ],
      "name": "Approval",
      "type": "event"
    },
    {
      "anonymous": false,
      "inputs": [
        {
          "indexed": true,
          "internalType": "address",
          "name": "_from",
          "type": "address"
        },
        {
          "indexed": true,
          "internalType": "address",
          "name": "_to",
          "type": "address"
        },
        {
          "indexed": true,
          "internalType": "uint256",
          "name": "_tokenId",
          "type": "uint256"
        }
      ],
      "name": "Transfer",
      "type": "event"
    },
    {
      "inputs": [
        {
          "internalType": "address",
          "name": "_to",
          "type": "address"
        },
        {
          "internalType": "uint256",
          "name": "tokenId",
          "type": "uint256"
        }
      ],
      "name": "aprrove",
      "outputs": [],
      "stateMutability": "nonpayable",
      "type": "function"
    },
    {
      "inputs": [
        {
          "internalType": "address",
          "name": "_owner",
          "type": "address"
        }
      ],
      "name": "balanceOf",
      "outputs": [
        {
          "internalType": "uint256",
          "name": "",
          "type": "uint256"
        }
      ],
      "stateMutability": "view",
      "type": "function"
    },
    {
      "inputs": [
        {
          "internalType": "uint256",
          "name": "_tokenId",
          "type": "uint256"
        }
      ],
      "name": "ownerOf",
      "outputs": [
        {
          "internalType": "address",
          "name": "",
          "type": "address"
        }
      ],
      "stateMutability": "view",
      "type": "function"
    },
    {
      "inputs": [
        {
          "internalType": "bytes4",
          "name": "interfaceID",
          "type": "bytes4"
        }
      ],
      "name": "supportsInterface",
      "outputs": [
        {
          "internalType": "bool",
          "name": "",
          "type": "bool"
        }
      ],
      "stateMutability": "view",
      "type": "function"
    },
    {
      "inputs": [
        {
          "internalType": "address",
          "name": "_from",
          "type": "address"
        },
        {
          "internalType": "address",
          "name": "_to",
          "type": "address"
        },
        {
          "internalType": "uint256",
          "name": "_tokenId",
          "type": "uint256"
        }
      ],
      "name": "transferFrom",
      "outputs": [],
      "stateMutability": "nonpayable",
      "type": "function"
    },
    {
      "inputs": [
        {
          "internalType": "uint256",
          "name": "index",
          "type": "uint256"
        }
      ],
      "name": "tokenByIndex",
      "outputs": [
        {
          "internalType": "uint256",
          "name": "",
          "type": "uint256"
        }
      ],
      "stateMutability": "view",
      "type": "function"
    },
    {
      "inputs": [
        {
          "internalType": "address",
          "name": "owner",
          "type": "address"
        },
        {
          "internalType": "uint256",
          "name": "index",
          "type": "uint256"
        }
      ],
      "name": "tokenOfOwnerByIndex",
      "outputs": [
        {
          "internalType": "uint256",
          "name": "",
          "type": "uint256"
        }
      ],
      "stateMutability": "view",
      "type": "function"
    },
    {
      "inputs": [],
      "name": "totalSupply",
      "outputs": [
        {
          "internalType": "uint256",
          "name": "",
          "type": "uint256"
        }
      ],
      "stateMutability": "view",
      "type": "function"
    }
  ],
  "bytecode": "0x60806040523480156200001157600080fd5b50620000877f22c82707ba960a14c7592ffb6b8cfaa073fed0048a84cc7fa41f6b5bd8e7f2e47f3a6eb71757dfc6e784c1459d26270140c2c147d95ca985c80026fc5301c3eca17f8a7e378434598edc36d108689a030cbc9d7d465de4f74c71bae1028eed6a881b18186200010260201b60201c565b620000fc7fc53637662700e6c65104059db8bba34439e0c32483ab7c34e3ccae52c73954957f8230223f691b981717299fae9549350a0d894555723531f02108b1f522c1a7977f6da5e1284143cdd2d15038a59bde3be031250f00291d64494c12d967b3a4e0c318186200010260201b60201c565b6200025d565b63ffffffff60e01b817bffffffffffffffffffffffffffffffffffffffffffffffffffffffff191614156200016e576040517f08c379a000000000000000000000000000000000000000000000000000000000815260040162000165906200023b565b60405180910390fd5b6001600080837bffffffffffffffffffffffffffffffffffffffffffffffffffffffff19167bffffffffffffffffffffffffffffffffffffffffffffffffffffffff1916815260200190815260200160002060006101000a81548160ff02191690831515021790555050565b600082825260208201905092915050565b7f496e74657266617a206e6f20646973706f6e69626c6500000000000000000000600082015250565b600062000223601683620001da565b91506200023082620001eb565b602082019050919050565b60006020820190508181036000830152620002568162000214565b9050919050565b6111ba806200026d6000396000f3fe608060405234801561001057600080fd5b50600436106100885760003560e01c80634f6ccce71161005b5780634f6ccce7146101275780636352211e1461015757806370a0823114610187578063d3490a64146101b757610088565b806301ffc9a71461008d57806318160ddd146100bd57806323b872dd146100db5780632f745c59146100f7575b600080fd5b6100a760048036038101906100a29190610a35565b6101d3565b6040516100b49190610a7d565b60405180910390f35b6100c561023a565b6040516100d29190610ab1565b60405180910390f35b6100f560048036038101906100f09190610b56565b610247565b005b610111600480360381019061010c9190610ba9565b61026a565b60405161011e9190610ab1565b60405180910390f35b610141600480360381019061013c9190610be9565b61031a565b60405161014e9190610ab1565b60405180910390f35b610171600480360381019061016c9190610be9565b61038b565b60405161017e9190610c25565b60405180910390f35b6101a1600480360381019061019c9190610c40565b61043d565b6040516101ae9190610ab1565b60405180910390f35b6101d160048036038101906101cc9190610ba9565b6104f5565b005b6000806000837bffffffffffffffffffffffffffffffffffffffffffffffffffffffff19167bffffffffffffffffffffffffffffffffffffffffffffffffffffffff1916815260200190815260200160002060009054906101000a900460ff169050919050565b6000600480549050905090565b6102513382610691565b61025a57600080fd5b610265838383610720565b505050565b60006102758361043d565b82106102b6576040517f08c379a00000000000000000000000000000000000000000000000000000000081526004016102ad90610cf0565b60405180910390fd5b600660008473ffffffffffffffffffffffffffffffffffffffff1673ffffffffffffffffffffffffffffffffffffffff168152602001908152602001600020828154811061030757610306610d10565b5b9060005260206000200154905092915050565b600061032461023a565b8210610365576040517f08c379a000000000000000000000000000000000000000000000000000000000815260040161035c90610db1565b60405180910390fd5b6004828154811061037957610378610d10565b5b90600052602060002001549050919050565b6000806001600084815260200190815260200160002060009054906101000a900473ffffffffffffffffffffffffffffffffffffffff169050600073ffffffffffffffffffffffffffffffffffffffff168173ffffffffffffffffffffffffffffffffffffffff161415610434576040517f08c379a000000000000000000000000000000000000000000000000000000000815260040161042b90610e43565b60405180910390fd5b80915050919050565b60008073ffffffffffffffffffffffffffffffffffffffff168273ffffffffffffffffffffffffffffffffffffffff1614156104ae576040517f08c379a00000000000000000000000000000000000000000000000000000000081526004016104a590610e43565b60405180910390fd5b600260008373ffffffffffffffffffffffffffffffffffffffff1673ffffffffffffffffffffffffffffffffffffffff168152602001908152602001600020549050919050565b60006105008261038b565b90508073ffffffffffffffffffffffffffffffffffffffff168373ffffffffffffffffffffffffffffffffffffffff161415610571576040517f08c379a000000000000000000000000000000000000000000000000000000000815260040161056890610eaf565b60405180910390fd5b8073ffffffffffffffffffffffffffffffffffffffff163373ffffffffffffffffffffffffffffffffffffffff16146105df576040517f08c379a00000000000000000000000000000000000000000000000000000000081526004016105d690610f41565b60405180910390fd5b826003600084815260200190815260200160002060006101000a81548173ffffffffffffffffffffffffffffffffffffffff021916908373ffffffffffffffffffffffffffffffffffffffff160217905550818373ffffffffffffffffffffffffffffffffffffffff168273ffffffffffffffffffffffffffffffffffffffff167f8c5be1e5ebec7d5bd14f71427d1e84f3dd0314c0f7b2291e5b200ac8c7c3b92560405160405180910390a4505050565b600061069c82610966565b6106db576040517f08c379a00000000000000000000000000000000000000000000000000000000081526004016106d290610fad565b60405180910390fd5b60006106e68361038b565b90508073ffffffffffffffffffffffffffffffffffffffff168473ffffffffffffffffffffffffffffffffffffffff161491505092915050565b600073ffffffffffffffffffffffffffffffffffffffff168273ffffffffffffffffffffffffffffffffffffffff161415610790576040517f08c379a00000000000000000000000000000000000000000000000000000000081526004016107879061103f565b60405180910390fd5b8273ffffffffffffffffffffffffffffffffffffffff166107b08261038b565b73ffffffffffffffffffffffffffffffffffffffff1614610806576040517f08c379a00000000000000000000000000000000000000000000000000000000081526004016107fd906110ab565b60405180910390fd5b6001600260008573ffffffffffffffffffffffffffffffffffffffff1673ffffffffffffffffffffffffffffffffffffffff168152602001908152602001600020600082825461085691906110fa565b925050819055506001600260008473ffffffffffffffffffffffffffffffffffffffff1673ffffffffffffffffffffffffffffffffffffffff16815260200190815260200160002060008282546108ad919061112e565b92505081905550816001600083815260200190815260200160002060006101000a81548173ffffffffffffffffffffffffffffffffffffffff021916908373ffffffffffffffffffffffffffffffffffffffff160217905550808273ffffffffffffffffffffffffffffffffffffffff168473ffffffffffffffffffffffffffffffffffffffff167fddf252ad1be2c89b69c2b068fc378daa952ba7f163c4a11628f55a4df523b3ef60405160405180910390a4505050565b6000806001600084815260200190815260200160002060009054906101000a900473ffffffffffffffffffffffffffffffffffffffff169050600073ffffffffffffffffffffffffffffffffffffffff168173ffffffffffffffffffffffffffffffffffffffff161415915050919050565b600080fd5b60007fffffffff0000000000000000000000000000000000000000000000000000000082169050919050565b610a12816109dd565b8114610a1d57600080fd5b50565b600081359050610a2f81610a09565b92915050565b600060208284031215610a4b57610a4a6109d8565b5b6000610a5984828501610a20565b91505092915050565b60008115159050919050565b610a7781610a62565b82525050565b6000602082019050610a926000830184610a6e565b92915050565b6000819050919050565b610aab81610a98565b82525050565b6000602082019050610ac66000830184610aa2565b92915050565b600073ffffffffffffffffffffffffffffffffffffffff82169050919050565b6000610af782610acc565b9050919050565b610b0781610aec565b8114610b1257600080fd5b50565b600081359050610b2481610afe565b92915050565b610b3381610a98565b8114610b3e57600080fd5b50565b600081359050610b5081610b2a565b92915050565b600080600060608486031215610b6f57610b6e6109d8565b5b6000610b7d86828701610b15565b9350506020610b8e86828701610b15565b9250506040610b9f86828701610b41565b9150509250925092565b60008060408385031215610bc057610bbf6109d8565b5b6000610bce85828601610b15565b9250506020610bdf85828601610b41565b9150509250929050565b600060208284031215610bff57610bfe6109d8565b5b6000610c0d84828501610b41565b91505092915050565b610c1f81610aec565b82525050565b6000602082019050610c3a6000830184610c16565b92915050565b600060208284031215610c5657610c556109d8565b5b6000610c6484828501610b15565b91505092915050565b600082825260208201905092915050565b7f656c20696e646963652064656c206475656e6f2065737461206675657261206460008201527f652072616e676f00000000000000000000000000000000000000000000000000602082015250565b6000610cda602783610c6d565b9150610ce582610c7e565b604082019050919050565b60006020820190508181036000830152610d0981610ccd565b9050919050565b7f4e487b7100000000000000000000000000000000000000000000000000000000600052603260045260246000fd5b7f456c20696e6469636520676c6f62616c2065737461206675657261206465207260008201527f616e676f00000000000000000000000000000000000000000000000000000000602082015250565b6000610d9b602483610c6d565b9150610da682610d3f565b604082019050919050565b60006020820190508181036000830152610dca81610d8e565b9050919050565b7f4552433732313a20437265616e646f20656c20746f6b656e20656e206c61206460008201527f69726563696f6e20696e6578697374656e7465206f2030000000000000000000602082015250565b6000610e2d603783610c6d565b9150610e3882610dd1565b604082019050919050565b60006020820190508181036000830152610e5c81610e20565b9050919050565b7f4e6f20657320656c206475656e6f2064656c20746f6b656e0000000000000000600082015250565b6000610e99601883610c6d565b9150610ea482610e63565b602082019050919050565b60006020820190508181036000830152610ec881610e8c565b9050919050565b7f456c20717565207175696572652068616365722065737465206c6c616d61646f60008201527f206e6f20657320656c206475656e6f2064656c20746f6b656e00000000000000602082015250565b6000610f2b603983610c6d565b9150610f3682610ecf565b604082019050919050565b60006020820190508181036000830152610f5a81610f1e565b9050919050565b7f456c20746f6b656e206e6f206578697374650000000000000000000000000000600082015250565b6000610f97601283610c6d565b9150610fa282610f61565b602082019050919050565b60006020820190508181036000830152610fc681610f8a565b9050919050565b7f4552524f52202d204e6f2073652070756564652074726e61666572697220612060008201527f6c6120646972656363696f6e2030000000000000000000000000000000000000602082015250565b6000611029602e83610c6d565b915061103482610fcd565b604082019050919050565b600060208201905081810360008301526110588161101c565b9050919050565b7f446972656363696f6e20696e636f727265637461000000000000000000000000600082015250565b6000611095601483610c6d565b91506110a08261105f565b602082019050919050565b600060208201905081810360008301526110c481611088565b9050919050565b7f4e487b7100000000000000000000000000000000000000000000000000000000600052601160045260246000fd5b600061110582610a98565b915061111083610a98565b925082821015611123576111226110cb565b5b828203905092915050565b600061113982610a98565b915061114483610a98565b9250827fffffffffffffffffffffffffffffffffffffffffffffffffffffffffffffffff03821115611179576111786110cb565b5b82820190509291505056fea2646970667358221220cd9a59814d071b16f9a26385d43c1091367c13d7e078d4462171e3a2f44a133264736f6c634300080a0033",
  "immutableReferences": {},
  "source": "// SPDX-License-Identifier: MIT\r\n\r\npragma solidity ^0.8.0;\r\nimport './ERC721.sol';\r\nimport './interfaces/IERC721Enumerable.sol';\r\n\r\ncontract ERC721Enumerable is IERC721Enumerable,ERC721 {\r\n\r\n    uint256[] private _allTokens;\r\n\r\n//mapeo del tokenid a su posiccion\r\n    mapping(uint256 => uint256) private _allTokensIndex;\r\n\r\n//mapeo  del dueno para ver todos sus tokens, es un array debido a que es una lista\r\nmapping (address => uint256[]) private  _ownedTokens;\r\n\r\n//mapeo de los indices de los ids de los tokens del dueno\r\n\r\nmapping (uint256 => uint256) private _ownedTokensIndex;\r\n\r\n\r\n constructor (){\r\n\r\n        _registerInterface(bytes4(keccak256('tokenByIndex(bytes4)')^\r\n        keccak256('tokenOfOwnerByIndex(bytes4)')^keccak256('totalSupply(bytes4)')));\r\n    }\r\n\r\n\r\n        function _mint (address to, uint256 tokenId) internal override (ERC721){\r\n\r\n                super._mint(to, tokenId);\r\n\r\n                //queremos crear una funcion para:\r\n                //A. agregar los tokens al dueno\r\n                //B. Agreegar los tokens a nuestro total de tokens\r\n\r\n\r\n                _addTokensToAllTokenEnumeration(tokenId);\r\n\r\n                _addTokensToOwnerEnumeration(to, tokenId);\r\n            }\r\n\r\n\r\n        //agrega tokens al _allTokens array y agrega la posicion al _allTokensIndex\r\n        function _addTokensToAllTokenEnumeration(uint256 tokenId) private {\r\n                _allTokensIndex[tokenId]= _allTokens.length;\r\n                 _allTokens.push(tokenId);\r\n\r\n\r\n        }\r\n\r\n\r\n//Agregamos los indices de los tokens que posee el dueno y agrega los tokens aal dueno\r\n        function _addTokensToOwnerEnumeration(address to, uint256  tokenId) private {\r\n\r\n            _ownedTokensIndex[tokenId]=_ownedTokens[to].length;\r\n            _ownedTokens[to].push(tokenId);\r\n\r\n        }\r\n\r\nfunction tokenByIndex(uint256 index) public view override returns (uint256){\r\nrequire (index  < totalSupply(), 'El indice global esta fuera de rango');\r\n    return _allTokens[index];\r\n}\r\n\r\nfunction tokenOfOwnerByIndex(address owner, uint256  index) public view override returns(uint256){\r\nrequire(index < balanceOf(owner),'el indice del dueno esta fuera de rango');\r\nreturn  _ownedTokens[owner][index];\r\n}\r\n\r\n\r\n        //regresa la cantidad total de los _allTokens array\r\n        function totalSupply() public view override returns (uint256){\r\n                return _allTokens.length;\r\n        }\r\n\r\n\r\n    \r\n\r\n\r\n}",
  "sourcePath": "D:\\AAAcursos\\NFTs\\nft_marketplace-My_Code\\src\\contracts\\ERC721Enumerable.sol",
  "compiler": {
    "name": "solc",
    "version": "0.8.10+commit.fc410830.Emscripten.clang"
  },
  "schemaVersion": "3.4.3",
  "updatedAt": "2021-11-28T20:24:07.885Z",
  "devdoc": {
    "kind": "dev",
    "methods": {
      "supportsInterface(bytes4)": {
        "details": "Interface identification is specified in ERC-165. This function  uses less than 30,000 gas.",
        "params": {
          "interfaceID": "The interface identifier, as specified in ERC-165"
        },
        "returns": {
          "_0": "`true` if the contract implements `interfaceID` and  `interfaceID` is not 0xffffffff, `false` otherwise"
        }
      }
    },
    "version": 1
  },
  "userdoc": {
    "kind": "user",
    "methods": {
      "supportsInterface(bytes4)": {
        "notice": "Query if a contract implements an interface"
      }
    },
    "version": 1
  }
}