{
  "contractName": "ERC721Connector",
  "abi": [
    {
      "inputs": [
        {
          "internalType": "string",
          "name": "name",
          "type": "string"
        },
        {
          "internalType": "string",
          "name": "symbol",
          "type": "string"
        }
      ],
      "stateMutability": "nonpayable",
      "type": "constructor"
    },
    {
      "anonymous": false,
      "inputs": [
        {
          "indexed": true,
          "internalType": "address",
          "name": "_owner",
          "type": "address"
        },
        {
          "indexed": true,
          "internalType": "address",
          "name": "_approved",
          "type": "address"
        },
        {
          "indexed": true,
          "internalType": "uint256",
          "name": "_tokenId",
          "type": "uint256"
        }
      ],
      "name": "Approval",
      "type": "event"
    },
    {
      "anonymous": false,
      "inputs": [
        {
          "indexed": true,
          "internalType": "address",
          "name": "_from",
          "type": "address"
        },
        {
          "indexed": true,
          "internalType": "address",
          "name": "_to",
          "type": "address"
        },
        {
          "indexed": true,
          "internalType": "uint256",
          "name": "_tokenId",
          "type": "uint256"
        }
      ],
      "name": "Transfer",
      "type": "event"
    },
    {
      "inputs": [
        {
          "internalType": "address",
          "name": "_to",
          "type": "address"
        },
        {
          "internalType": "uint256",
          "name": "tokenId",
          "type": "uint256"
        }
      ],
      "name": "aprrove",
      "outputs": [],
      "stateMutability": "nonpayable",
      "type": "function"
    },
    {
      "inputs": [
        {
          "internalType": "address",
          "name": "_owner",
          "type": "address"
        }
      ],
      "name": "balanceOf",
      "outputs": [
        {
          "internalType": "uint256",
          "name": "",
          "type": "uint256"
        }
      ],
      "stateMutability": "view",
      "type": "function"
    },
    {
      "inputs": [],
      "name": "name",
      "outputs": [
        {
          "internalType": "string",
          "name": "",
          "type": "string"
        }
      ],
      "stateMutability": "view",
      "type": "function"
    },
    {
      "inputs": [
        {
          "internalType": "uint256",
          "name": "_tokenId",
          "type": "uint256"
        }
      ],
      "name": "ownerOf",
      "outputs": [
        {
          "internalType": "address",
          "name": "",
          "type": "address"
        }
      ],
      "stateMutability": "view",
      "type": "function"
    },
    {
      "inputs": [
        {
          "internalType": "bytes4",
          "name": "interfaceID",
          "type": "bytes4"
        }
      ],
      "name": "supportsInterface",
      "outputs": [
        {
          "internalType": "bool",
          "name": "",
          "type": "bool"
        }
      ],
      "stateMutability": "view",
      "type": "function"
    },
    {
      "inputs": [],
      "name": "symbol",
      "outputs": [
        {
          "internalType": "string",
          "name": "",
          "type": "string"
        }
      ],
      "stateMutability": "view",
      "type": "function"
    },
    {
      "inputs": [
        {
          "internalType": "uint256",
          "name": "index",
          "type": "uint256"
        }
      ],
      "name": "tokenByIndex",
      "outputs": [
        {
          "internalType": "uint256",
          "name": "",
          "type": "uint256"
        }
      ],
      "stateMutability": "view",
      "type": "function"
    },
    {
      "inputs": [
        {
          "internalType": "address",
          "name": "owner",
          "type": "address"
        },
        {
          "internalType": "uint256",
          "name": "index",
          "type": "uint256"
        }
      ],
      "name": "tokenOfOwnerByIndex",
      "outputs": [
        {
          "internalType": "uint256",
          "name": "",
          "type": "uint256"
        }
      ],
      "stateMutability": "view",
      "type": "function"
    },
    {
      "inputs": [],
      "name": "totalSupply",
      "outputs": [
        {
          "internalType": "uint256",
          "name": "",
          "type": "uint256"
        }
      ],
      "stateMutability": "view",
      "type": "function"
    },
    {
      "inputs": [
        {
          "internalType": "address",
          "name": "_from",
          "type": "address"
        },
        {
          "internalType": "address",
          "name": "_to",
          "type": "address"
        },
        {
          "internalType": "uint256",
          "name": "_tokenId",
          "type": "uint256"
        }
      ],
      "name": "transferFrom",
      "outputs": [],
      "stateMutability": "nonpayable",
      "type": "function"
    }
  ],
  "bytecode": "0x60806040523480156200001157600080fd5b5060405162001a8f38038062001a8f8339818101604052810190620000379190620004d7565b81816200008c7f13b182f4c0e5b2efbac0efe6cf6d756c8b89f4b79c5707a043ed9ea740574ee97f7feaf19471f34a12a7eaf32d5f3090aa2260ea8624dc8a138e74e0bf0f62307618620001b260201b60201c565b8160019080519060200190620000a49291906200028a565b508060029080519060200190620000bd9291906200028a565b505050620001357f22c82707ba960a14c7592ffb6b8cfaa073fed0048a84cc7fa41f6b5bd8e7f2e47f3a6eb71757dfc6e784c1459d26270140c2c147d95ca985c80026fc5301c3eca17f8a7e378434598edc36d108689a030cbc9d7d465de4f74c71bae1028eed6a881b1818620001b260201b60201c565b620001aa7fc53637662700e6c65104059db8bba34439e0c32483ab7c34e3ccae52c73954957f8230223f691b981717299fae9549350a0d894555723531f02108b1f522c1a7977f6da5e1284143cdd2d15038a59bde3be031250f00291d64494c12d967b3a4e0c31818620001b260201b60201c565b505062000644565b63ffffffff60e01b817bffffffffffffffffffffffffffffffffffffffffffffffffffffffff191614156200021e576040517f08c379a00000000000000000000000000000000000000000000000000000000081526004016200021590620005bd565b60405180910390fd5b6001600080837bffffffffffffffffffffffffffffffffffffffffffffffffffffffff19167bffffffffffffffffffffffffffffffffffffffffffffffffffffffff1916815260200190815260200160002060006101000a81548160ff02191690831515021790555050565b82805462000298906200060e565b90600052602060002090601f016020900481019282620002bc576000855562000308565b82601f10620002d757805160ff191683800117855562000308565b8280016001018555821562000308579182015b8281111562000307578251825591602001919060010190620002ea565b5b5090506200031791906200031b565b5090565b5b80821115620003365760008160009055506001016200031c565b5090565b6000604051905090565b600080fd5b600080fd5b600080fd5b600080fd5b6000601f19601f8301169050919050565b7f4e487b7100000000000000000000000000000000000000000000000000000000600052604160045260246000fd5b620003a38262000358565b810181811067ffffffffffffffff82111715620003c557620003c462000369565b5b80604052505050565b6000620003da6200033a565b9050620003e8828262000398565b919050565b600067ffffffffffffffff8211156200040b576200040a62000369565b5b620004168262000358565b9050602081019050919050565b60005b838110156200044357808201518184015260208101905062000426565b8381111562000453576000848401525b50505050565b6000620004706200046a84620003ed565b620003ce565b9050828152602081018484840111156200048f576200048e62000353565b5b6200049c84828562000423565b509392505050565b600082601f830112620004bc57620004bb6200034e565b5b8151620004ce84826020860162000459565b91505092915050565b60008060408385031215620004f157620004f062000344565b5b600083015167ffffffffffffffff81111562000512576200051162000349565b5b6200052085828601620004a4565b925050602083015167ffffffffffffffff81111562000544576200054362000349565b5b6200055285828601620004a4565b9150509250929050565b600082825260208201905092915050565b7f496e74657266617a206e6f20646973706f6e69626c6500000000000000000000600082015250565b6000620005a56016836200055c565b9150620005b2826200056d565b602082019050919050565b60006020820190508181036000830152620005d88162000596565b9050919050565b7f4e487b7100000000000000000000000000000000000000000000000000000000600052602260045260246000fd5b600060028204905060018216806200062757607f821691505b602082108114156200063e576200063d620005df565b5b50919050565b61143b80620006546000396000f3fe608060405234801561001057600080fd5b506004361061009e5760003560e01c80634f6ccce7116100665780634f6ccce71461015b5780636352211e1461018b57806370a08231146101bb57806395d89b41146101eb578063d3490a64146102095761009e565b806301ffc9a7146100a357806306fdde03146100d357806318160ddd146100f157806323b872dd1461010f5780632f745c591461012b575b600080fd5b6100bd60048036038101906100b89190610bab565b610225565b6040516100ca9190610bf3565b60405180910390f35b6100db61028c565b6040516100e89190610ca7565b60405180910390f35b6100f961031e565b6040516101069190610ce2565b60405180910390f35b61012960048036038101906101249190610d87565b61032b565b005b61014560048036038101906101409190610dda565b61034e565b6040516101529190610ce2565b60405180910390f35b61017560048036038101906101709190610e1a565b6103fe565b6040516101829190610ce2565b60405180910390f35b6101a560048036038101906101a09190610e1a565b61046f565b6040516101b29190610e56565b60405180910390f35b6101d560048036038101906101d09190610e71565b610521565b6040516101e29190610ce2565b60405180910390f35b6101f36105d9565b6040516102009190610ca7565b60405180910390f35b610223600480360381019061021e9190610dda565b61066b565b005b6000806000837bffffffffffffffffffffffffffffffffffffffffffffffffffffffff19167bffffffffffffffffffffffffffffffffffffffffffffffffffffffff1916815260200190815260200160002060009054906101000a900460ff169050919050565b60606001805461029b90610ecd565b80601f01602080910402602001604051908101604052809291908181526020018280546102c790610ecd565b80156103145780601f106102e957610100808354040283529160200191610314565b820191906000526020600020905b8154815290600101906020018083116102f757829003601f168201915b5050505050905090565b6000600680549050905090565b6103353382610807565b61033e57600080fd5b610349838383610896565b505050565b600061035983610521565b821061039a576040517f08c379a000000000000000000000000000000000000000000000000000000000815260040161039190610f71565b60405180910390fd5b600860008473ffffffffffffffffffffffffffffffffffffffff1673ffffffffffffffffffffffffffffffffffffffff16815260200190815260200160002082815481106103eb576103ea610f91565b5b9060005260206000200154905092915050565b600061040861031e565b8210610449576040517f08c379a000000000000000000000000000000000000000000000000000000000815260040161044090611032565b60405180910390fd5b6006828154811061045d5761045c610f91565b5b90600052602060002001549050919050565b6000806003600084815260200190815260200160002060009054906101000a900473ffffffffffffffffffffffffffffffffffffffff169050600073ffffffffffffffffffffffffffffffffffffffff168173ffffffffffffffffffffffffffffffffffffffff161415610518576040517f08c379a000000000000000000000000000000000000000000000000000000000815260040161050f906110c4565b60405180910390fd5b80915050919050565b60008073ffffffffffffffffffffffffffffffffffffffff168273ffffffffffffffffffffffffffffffffffffffff161415610592576040517f08c379a0000000000000000000000000000000000000000000000000000000008152600401610589906110c4565b60405180910390fd5b600460008373ffffffffffffffffffffffffffffffffffffffff1673ffffffffffffffffffffffffffffffffffffffff168152602001908152602001600020549050919050565b6060600280546105e890610ecd565b80601f016020809104026020016040519081016040528092919081815260200182805461061490610ecd565b80156106615780601f1061063657610100808354040283529160200191610661565b820191906000526020600020905b81548152906001019060200180831161064457829003601f168201915b5050505050905090565b60006106768261046f565b90508073ffffffffffffffffffffffffffffffffffffffff168373ffffffffffffffffffffffffffffffffffffffff1614156106e7576040517f08c379a00000000000000000000000000000000000000000000000000000000081526004016106de90611130565b60405180910390fd5b8073ffffffffffffffffffffffffffffffffffffffff163373ffffffffffffffffffffffffffffffffffffffff1614610755576040517f08c379a000000000000000000000000000000000000000000000000000000000815260040161074c906111c2565b60405180910390fd5b826005600084815260200190815260200160002060006101000a81548173ffffffffffffffffffffffffffffffffffffffff021916908373ffffffffffffffffffffffffffffffffffffffff160217905550818373ffffffffffffffffffffffffffffffffffffffff168273ffffffffffffffffffffffffffffffffffffffff167f8c5be1e5ebec7d5bd14f71427d1e84f3dd0314c0f7b2291e5b200ac8c7c3b92560405160405180910390a4505050565b600061081282610adc565b610851576040517f08c379a00000000000000000000000000000000000000000000000000000000081526004016108489061122e565b60405180910390fd5b600061085c8361046f565b90508073ffffffffffffffffffffffffffffffffffffffff168473ffffffffffffffffffffffffffffffffffffffff161491505092915050565b600073ffffffffffffffffffffffffffffffffffffffff168273ffffffffffffffffffffffffffffffffffffffff161415610906576040517f08c379a00000000000000000000000000000000000000000000000000000000081526004016108fd906112c0565b60405180910390fd5b8273ffffffffffffffffffffffffffffffffffffffff166109268261046f565b73ffffffffffffffffffffffffffffffffffffffff161461097c576040517f08c379a00000000000000000000000000000000000000000000000000000000081526004016109739061132c565b60405180910390fd5b6001600460008573ffffffffffffffffffffffffffffffffffffffff1673ffffffffffffffffffffffffffffffffffffffff16815260200190815260200160002060008282546109cc919061137b565b925050819055506001600460008473ffffffffffffffffffffffffffffffffffffffff1673ffffffffffffffffffffffffffffffffffffffff1681526020019081526020016000206000828254610a2391906113af565b92505081905550816003600083815260200190815260200160002060006101000a81548173ffffffffffffffffffffffffffffffffffffffff021916908373ffffffffffffffffffffffffffffffffffffffff160217905550808273ffffffffffffffffffffffffffffffffffffffff168473ffffffffffffffffffffffffffffffffffffffff167fddf252ad1be2c89b69c2b068fc378daa952ba7f163c4a11628f55a4df523b3ef60405160405180910390a4505050565b6000806003600084815260200190815260200160002060009054906101000a900473ffffffffffffffffffffffffffffffffffffffff169050600073ffffffffffffffffffffffffffffffffffffffff168173ffffffffffffffffffffffffffffffffffffffff161415915050919050565b600080fd5b60007fffffffff0000000000000000000000000000000000000000000000000000000082169050919050565b610b8881610b53565b8114610b9357600080fd5b50565b600081359050610ba581610b7f565b92915050565b600060208284031215610bc157610bc0610b4e565b5b6000610bcf84828501610b96565b91505092915050565b60008115159050919050565b610bed81610bd8565b82525050565b6000602082019050610c086000830184610be4565b92915050565b600081519050919050565b600082825260208201905092915050565b60005b83811015610c48578082015181840152602081019050610c2d565b83811115610c57576000848401525b50505050565b6000601f19601f8301169050919050565b6000610c7982610c0e565b610c838185610c19565b9350610c93818560208601610c2a565b610c9c81610c5d565b840191505092915050565b60006020820190508181036000830152610cc18184610c6e565b905092915050565b6000819050919050565b610cdc81610cc9565b82525050565b6000602082019050610cf76000830184610cd3565b92915050565b600073ffffffffffffffffffffffffffffffffffffffff82169050919050565b6000610d2882610cfd565b9050919050565b610d3881610d1d565b8114610d4357600080fd5b50565b600081359050610d5581610d2f565b92915050565b610d6481610cc9565b8114610d6f57600080fd5b50565b600081359050610d8181610d5b565b92915050565b600080600060608486031215610da057610d9f610b4e565b5b6000610dae86828701610d46565b9350506020610dbf86828701610d46565b9250506040610dd086828701610d72565b9150509250925092565b60008060408385031215610df157610df0610b4e565b5b6000610dff85828601610d46565b9250506020610e1085828601610d72565b9150509250929050565b600060208284031215610e3057610e2f610b4e565b5b6000610e3e84828501610d72565b91505092915050565b610e5081610d1d565b82525050565b6000602082019050610e6b6000830184610e47565b92915050565b600060208284031215610e8757610e86610b4e565b5b6000610e9584828501610d46565b91505092915050565b7f4e487b7100000000000000000000000000000000000000000000000000000000600052602260045260246000fd5b60006002820490506001821680610ee557607f821691505b60208210811415610ef957610ef8610e9e565b5b50919050565b7f656c20696e646963652064656c206475656e6f2065737461206675657261206460008201527f652072616e676f00000000000000000000000000000000000000000000000000602082015250565b6000610f5b602783610c19565b9150610f6682610eff565b604082019050919050565b60006020820190508181036000830152610f8a81610f4e565b9050919050565b7f4e487b7100000000000000000000000000000000000000000000000000000000600052603260045260246000fd5b7f456c20696e6469636520676c6f62616c2065737461206675657261206465207260008201527f616e676f00000000000000000000000000000000000000000000000000000000602082015250565b600061101c602483610c19565b915061102782610fc0565b604082019050919050565b6000602082019050818103600083015261104b8161100f565b9050919050565b7f4552433732313a20437265616e646f20656c20746f6b656e20656e206c61206460008201527f69726563696f6e20696e6578697374656e7465206f2030000000000000000000602082015250565b60006110ae603783610c19565b91506110b982611052565b604082019050919050565b600060208201905081810360008301526110dd816110a1565b9050919050565b7f4e6f20657320656c206475656e6f2064656c20746f6b656e0000000000000000600082015250565b600061111a601883610c19565b9150611125826110e4565b602082019050919050565b600060208201905081810360008301526111498161110d565b9050919050565b7f456c20717565207175696572652068616365722065737465206c6c616d61646f60008201527f206e6f20657320656c206475656e6f2064656c20746f6b656e00000000000000602082015250565b60006111ac603983610c19565b91506111b782611150565b604082019050919050565b600060208201905081810360008301526111db8161119f565b9050919050565b7f456c20746f6b656e206e6f206578697374650000000000000000000000000000600082015250565b6000611218601283610c19565b9150611223826111e2565b602082019050919050565b600060208201905081810360008301526112478161120b565b9050919050565b7f4552524f52202d204e6f2073652070756564652074726e61666572697220612060008201527f6c6120646972656363696f6e2030000000000000000000000000000000000000602082015250565b60006112aa602e83610c19565b91506112b58261124e565b604082019050919050565b600060208201905081810360008301526112d98161129d565b9050919050565b7f446972656363696f6e20696e636f727265637461000000000000000000000000600082015250565b6000611316601483610c19565b9150611321826112e0565b602082019050919050565b6000602082019050818103600083015261134581611309565b9050919050565b7f4e487b7100000000000000000000000000000000000000000000000000000000600052601160045260246000fd5b600061138682610cc9565b915061139183610cc9565b9250828210156113a4576113a361134c565b5b828203905092915050565b60006113ba82610cc9565b91506113c583610cc9565b9250827fffffffffffffffffffffffffffffffffffffffffffffffffffffffffffffffff038211156113fa576113f961134c565b5b82820190509291505056fea264697066735822122035d47d5ce2162a0a366461c3e41c20d34ac2edf44881ed9242cba536a57b635764736f6c634300080a0033",
  "immutableReferences": {},
  "source": "// SPDX-License-Identifier: MIT\r\n\r\npragma solidity ^0.8.0;\r\n\r\nimport './ERC721Metadata.sol';\r\n\r\nimport './ERC721Enumerable.sol';\r\n\r\ncontract ERC721Connector is ERC721Metadata, ERC721Enumerable {\r\n\r\n\r\n    constructor (string memory name, string memory  symbol) ERC721Metadata (name, symbol){\r\n\r\n       \r\n\r\n    }\r\n\r\n}",
  "sourcePath": "D:\\AAAcursos\\NFTs\\nft_marketplace-My_Code\\src\\contracts\\ERC721Connector.sol",
  "compiler": {
    "name": "solc",
    "version": "0.8.10+commit.fc410830.Emscripten.clang"
  },
  "schemaVersion": "3.4.3",
  "updatedAt": "2021-11-28T20:24:07.876Z",
  "devdoc": {
    "kind": "dev",
    "methods": {
      "supportsInterface(bytes4)": {
        "details": "Interface identification is specified in ERC-165. This function  uses less than 30,000 gas.",
        "params": {
          "interfaceID": "The interface identifier, as specified in ERC-165"
        },
        "returns": {
          "_0": "`true` if the contract implements `interfaceID` and  `interfaceID` is not 0xffffffff, `false` otherwise"
        }
      }
    },
    "version": 1
  },
  "userdoc": {
    "kind": "user",
    "methods": {
      "supportsInterface(bytes4)": {
        "notice": "Query if a contract implements an interface"
      }
    },
    "version": 1
  }
}