{
  "contractName": "KryptoBird",
  "abi": [
    {
      "inputs": [],
      "stateMutability": "nonpayable",
      "type": "constructor"
    },
    {
      "anonymous": false,
      "inputs": [
        {
          "indexed": true,
          "internalType": "address",
          "name": "_owner",
          "type": "address"
        },
        {
          "indexed": true,
          "internalType": "address",
          "name": "_approved",
          "type": "address"
        },
        {
          "indexed": true,
          "internalType": "uint256",
          "name": "_tokenId",
          "type": "uint256"
        }
      ],
      "name": "Approval",
      "type": "event"
    },
    {
      "anonymous": false,
      "inputs": [
        {
          "indexed": true,
          "internalType": "address",
          "name": "_from",
          "type": "address"
        },
        {
          "indexed": true,
          "internalType": "address",
          "name": "_to",
          "type": "address"
        },
        {
          "indexed": true,
          "internalType": "uint256",
          "name": "_tokenId",
          "type": "uint256"
        }
      ],
      "name": "Transfer",
      "type": "event"
    },
    {
      "inputs": [
        {
          "internalType": "address",
          "name": "_to",
          "type": "address"
        },
        {
          "internalType": "uint256",
          "name": "tokenId",
          "type": "uint256"
        }
      ],
      "name": "aprrove",
      "outputs": [],
      "stateMutability": "nonpayable",
      "type": "function"
    },
    {
      "inputs": [
        {
          "internalType": "address",
          "name": "_owner",
          "type": "address"
        }
      ],
      "name": "balanceOf",
      "outputs": [
        {
          "internalType": "uint256",
          "name": "",
          "type": "uint256"
        }
      ],
      "stateMutability": "view",
      "type": "function",
      "constant": true
    },
    {
      "inputs": [
        {
          "internalType": "uint256",
          "name": "",
          "type": "uint256"
        }
      ],
      "name": "kryptoBirdz",
      "outputs": [
        {
          "internalType": "string",
          "name": "",
          "type": "string"
        }
      ],
      "stateMutability": "view",
      "type": "function",
      "constant": true
    },
    {
      "inputs": [],
      "name": "name",
      "outputs": [
        {
          "internalType": "string",
          "name": "",
          "type": "string"
        }
      ],
      "stateMutability": "view",
      "type": "function",
      "constant": true
    },
    {
      "inputs": [
        {
          "internalType": "uint256",
          "name": "_tokenId",
          "type": "uint256"
        }
      ],
      "name": "ownerOf",
      "outputs": [
        {
          "internalType": "address",
          "name": "",
          "type": "address"
        }
      ],
      "stateMutability": "view",
      "type": "function",
      "constant": true
    },
    {
      "inputs": [
        {
          "internalType": "bytes4",
          "name": "interfaceID",
          "type": "bytes4"
        }
      ],
      "name": "supportsInterface",
      "outputs": [
        {
          "internalType": "bool",
          "name": "",
          "type": "bool"
        }
      ],
      "stateMutability": "view",
      "type": "function",
      "constant": true
    },
    {
      "inputs": [],
      "name": "symbol",
      "outputs": [
        {
          "internalType": "string",
          "name": "",
          "type": "string"
        }
      ],
      "stateMutability": "view",
      "type": "function",
      "constant": true
    },
    {
      "inputs": [
        {
          "internalType": "uint256",
          "name": "index",
          "type": "uint256"
        }
      ],
      "name": "tokenByIndex",
      "outputs": [
        {
          "internalType": "uint256",
          "name": "",
          "type": "uint256"
        }
      ],
      "stateMutability": "view",
      "type": "function",
      "constant": true
    },
    {
      "inputs": [
        {
          "internalType": "address",
          "name": "owner",
          "type": "address"
        },
        {
          "internalType": "uint256",
          "name": "index",
          "type": "uint256"
        }
      ],
      "name": "tokenOfOwnerByIndex",
      "outputs": [
        {
          "internalType": "uint256",
          "name": "",
          "type": "uint256"
        }
      ],
      "stateMutability": "view",
      "type": "function",
      "constant": true
    },
    {
      "inputs": [],
      "name": "totalSupply",
      "outputs": [
        {
          "internalType": "uint256",
          "name": "",
          "type": "uint256"
        }
      ],
      "stateMutability": "view",
      "type": "function",
      "constant": true
    },
    {
      "inputs": [
        {
          "internalType": "address",
          "name": "_from",
          "type": "address"
        },
        {
          "internalType": "address",
          "name": "_to",
          "type": "address"
        },
        {
          "internalType": "uint256",
          "name": "_tokenId",
          "type": "uint256"
        }
      ],
      "name": "transferFrom",
      "outputs": [],
      "stateMutability": "nonpayable",
      "type": "function"
    },
    {
      "inputs": [
        {
          "internalType": "string",
          "name": "_kryptoBird",
          "type": "string"
        }
      ],
      "name": "mint",
      "outputs": [],
      "stateMutability": "nonpayable",
      "type": "function"
    }
  ],
  "bytecode": "0x60806040523480156200001157600080fd5b506040518060400160405280600a81526020017f4b727970746f42697264000000000000000000000000000000000000000000008152506040518060400160405280600681526020017f4b424952445a00000000000000000000000000000000000000000000000000008152508181620000d37f13b182f4c0e5b2efbac0efe6cf6d756c8b89f4b79c5707a043ed9ea740574ee97f7feaf19471f34a12a7eaf32d5f3090aa2260ea8624dc8a138e74e0bf0f62307618620001f960201b60201c565b8160019080519060200190620000eb929190620002d1565b50806002908051906020019062000104929190620002d1565b5050506200017c7f22c82707ba960a14c7592ffb6b8cfaa073fed0048a84cc7fa41f6b5bd8e7f2e47f3a6eb71757dfc6e784c1459d26270140c2c147d95ca985c80026fc5301c3eca17f8a7e378434598edc36d108689a030cbc9d7d465de4f74c71bae1028eed6a881b1818620001f960201b60201c565b620001f17fc53637662700e6c65104059db8bba34439e0c32483ab7c34e3ccae52c73954957f8230223f691b981717299fae9549350a0d894555723531f02108b1f522c1a7977f6da5e1284143cdd2d15038a59bde3be031250f00291d64494c12d967b3a4e0c31818620001f960201b60201c565b505062000469565b63ffffffff60e01b817bffffffffffffffffffffffffffffffffffffffffffffffffffffffff1916141562000265576040517f08c379a00000000000000000000000000000000000000000000000000000000081526004016200025c90620003e2565b60405180910390fd5b6001600080837bffffffffffffffffffffffffffffffffffffffffffffffffffffffff19167bffffffffffffffffffffffffffffffffffffffffffffffffffffffff1916815260200190815260200160002060006101000a81548160ff02191690831515021790555050565b828054620002df9062000433565b90600052602060002090601f0160209004810192826200030357600085556200034f565b82601f106200031e57805160ff19168380011785556200034f565b828001600101855582156200034f579182015b828111156200034e57825182559160200191906001019062000331565b5b5090506200035e919062000362565b5090565b5b808211156200037d57600081600090555060010162000363565b5090565b600082825260208201905092915050565b7f496e74657266617a206e6f20646973706f6e69626c6500000000000000000000600082015250565b6000620003ca60168362000381565b9150620003d78262000392565b602082019050919050565b60006020820190508181036000830152620003fd81620003bb565b9050919050565b7f4e487b7100000000000000000000000000000000000000000000000000000000600052602260045260246000fd5b600060028204905060018216806200044c57607f821691505b6020821081141562000463576200046262000404565b5b50919050565b611c9780620004796000396000f3fe608060405234801561001057600080fd5b50600436106100b45760003560e01c80636352211e116100715780636352211e146101a157806370a08231146101d157806393ab6e561461020157806395d89b4114610231578063d3490a641461024f578063d85d3d271461026b576100b4565b806301ffc9a7146100b957806306fdde03146100e957806318160ddd1461010757806323b872dd146101255780632f745c59146101415780634f6ccce714610171575b600080fd5b6100d360048036038101906100ce919061115e565b610287565b6040516100e091906111a6565b60405180910390f35b6100f16102ee565b6040516100fe919061125a565b60405180910390f35b61010f610380565b60405161011c9190611295565b60405180910390f35b61013f600480360381019061013a919061133a565b61038d565b005b61015b6004803603810190610156919061138d565b6103b0565b6040516101689190611295565b60405180910390f35b61018b600480360381019061018691906113cd565b610460565b6040516101989190611295565b60405180910390f35b6101bb60048036038101906101b691906113cd565b6104d1565b6040516101c89190611409565b60405180910390f35b6101eb60048036038101906101e69190611424565b610583565b6040516101f89190611295565b60405180910390f35b61021b600480360381019061021691906113cd565b61063b565b604051610228919061125a565b60405180910390f35b6102396106e7565b604051610246919061125a565b60405180910390f35b6102696004803603810190610264919061138d565b610779565b005b61028560048036038101906102809190611586565b610915565b005b6000806000837bffffffffffffffffffffffffffffffffffffffffffffffffffffffff19167bffffffffffffffffffffffffffffffffffffffffffffffffffffffff1916815260200190815260200160002060009054906101000a900460ff169050919050565b6060600180546102fd906115fe565b80601f0160208091040260200160405190810160405280929190818152602001828054610329906115fe565b80156103765780601f1061034b57610100808354040283529160200191610376565b820191906000526020600020905b81548152906001019060200180831161035957829003601f168201915b5050505050905090565b6000600680549050905090565b6103973382610a18565b6103a057600080fd5b6103ab838383610aa7565b505050565b60006103bb83610583565b82106103fc576040517f08c379a00000000000000000000000000000000000000000000000000000000081526004016103f3906116a2565b60405180910390fd5b600860008473ffffffffffffffffffffffffffffffffffffffff1673ffffffffffffffffffffffffffffffffffffffff168152602001908152602001600020828154811061044d5761044c6116c2565b5b9060005260206000200154905092915050565b600061046a610380565b82106104ab576040517f08c379a00000000000000000000000000000000000000000000000000000000081526004016104a290611763565b60405180910390fd5b600682815481106104bf576104be6116c2565b5b90600052602060002001549050919050565b6000806003600084815260200190815260200160002060009054906101000a900473ffffffffffffffffffffffffffffffffffffffff169050600073ffffffffffffffffffffffffffffffffffffffff168173ffffffffffffffffffffffffffffffffffffffff16141561057a576040517f08c379a0000000000000000000000000000000000000000000000000000000008152600401610571906117f5565b60405180910390fd5b80915050919050565b60008073ffffffffffffffffffffffffffffffffffffffff168273ffffffffffffffffffffffffffffffffffffffff1614156105f4576040517f08c379a00000000000000000000000000000000000000000000000000000000081526004016105eb906117f5565b60405180910390fd5b600460008373ffffffffffffffffffffffffffffffffffffffff1673ffffffffffffffffffffffffffffffffffffffff168152602001908152602001600020549050919050565b600a818154811061064b57600080fd5b906000526020600020016000915090508054610666906115fe565b80601f0160208091040260200160405190810160405280929190818152602001828054610692906115fe565b80156106df5780601f106106b4576101008083540402835291602001916106df565b820191906000526020600020905b8154815290600101906020018083116106c257829003601f168201915b505050505081565b6060600280546106f6906115fe565b80601f0160208091040260200160405190810160405280929190818152602001828054610722906115fe565b801561076f5780601f106107445761010080835404028352916020019161076f565b820191906000526020600020905b81548152906001019060200180831161075257829003601f168201915b5050505050905090565b6000610784826104d1565b90508073ffffffffffffffffffffffffffffffffffffffff168373ffffffffffffffffffffffffffffffffffffffff1614156107f5576040517f08c379a00000000000000000000000000000000000000000000000000000000081526004016107ec90611861565b60405180910390fd5b8073ffffffffffffffffffffffffffffffffffffffff163373ffffffffffffffffffffffffffffffffffffffff1614610863576040517f08c379a000000000000000000000000000000000000000000000000000000000815260040161085a906118f3565b60405180910390fd5b826005600084815260200190815260200160002060006101000a81548173ffffffffffffffffffffffffffffffffffffffff021916908373ffffffffffffffffffffffffffffffffffffffff160217905550818373ffffffffffffffffffffffffffffffffffffffff168273ffffffffffffffffffffffffffffffffffffffff167f8c5be1e5ebec7d5bd14f71427d1e84f3dd0314c0f7b2291e5b200ac8c7c3b92560405160405180910390a4505050565b600b81604051610925919061194f565b908152602001604051809103902060009054906101000a900460ff1615610981576040517f08c379a0000000000000000000000000000000000000000000000000000000008152600401610978906119b2565b60405180910390fd5b600a819080600181540180825580915050600190039060005260206000200160009091909190915090805190602001906109bc92919061104f565b5060006001600a805490506109d19190611a01565b90506109dd3382610ced565b6001600b836040516109ef919061194f565b908152602001604051809103902060006101000a81548160ff0219169083151502179055505050565b6000610a2382610d0e565b610a62576040517f08c379a0000000000000000000000000000000000000000000000000000000008152600401610a5990611a81565b60405180910390fd5b6000610a6d836104d1565b90508073ffffffffffffffffffffffffffffffffffffffff168473ffffffffffffffffffffffffffffffffffffffff161491505092915050565b600073ffffffffffffffffffffffffffffffffffffffff168273ffffffffffffffffffffffffffffffffffffffff161415610b17576040517f08c379a0000000000000000000000000000000000000000000000000000000008152600401610b0e90611b13565b60405180910390fd5b8273ffffffffffffffffffffffffffffffffffffffff16610b37826104d1565b73ffffffffffffffffffffffffffffffffffffffff1614610b8d576040517f08c379a0000000000000000000000000000000000000000000000000000000008152600401610b8490611b7f565b60405180910390fd5b6001600460008573ffffffffffffffffffffffffffffffffffffffff1673ffffffffffffffffffffffffffffffffffffffff1681526020019081526020016000206000828254610bdd9190611a01565b925050819055506001600460008473ffffffffffffffffffffffffffffffffffffffff1673ffffffffffffffffffffffffffffffffffffffff1681526020019081526020016000206000828254610c349190611b9f565b92505081905550816003600083815260200190815260200160002060006101000a81548173ffffffffffffffffffffffffffffffffffffffff021916908373ffffffffffffffffffffffffffffffffffffffff160217905550808273ffffffffffffffffffffffffffffffffffffffff168473ffffffffffffffffffffffffffffffffffffffff167fddf252ad1be2c89b69c2b068fc378daa952ba7f163c4a11628f55a4df523b3ef60405160405180910390a4505050565b610cf78282610d80565b610d0081610f42565b610d0a8282610f8b565b5050565b6000806003600084815260200190815260200160002060009054906101000a900473ffffffffffffffffffffffffffffffffffffffff169050600073ffffffffffffffffffffffffffffffffffffffff168173ffffffffffffffffffffffffffffffffffffffff161415915050919050565b600073ffffffffffffffffffffffffffffffffffffffff168273ffffffffffffffffffffffffffffffffffffffff161415610df0576040517f08c379a0000000000000000000000000000000000000000000000000000000008152600401610de7906117f5565b60405180910390fd5b610df981610d0e565b15610e39576040517f08c379a0000000000000000000000000000000000000000000000000000000008152600401610e3090611c41565b60405180910390fd5b816003600083815260200190815260200160002060006101000a81548173ffffffffffffffffffffffffffffffffffffffff021916908373ffffffffffffffffffffffffffffffffffffffff1602179055506001600460008473ffffffffffffffffffffffffffffffffffffffff1673ffffffffffffffffffffffffffffffffffffffff1681526020019081526020016000206000828254610edb9190611b9f565b92505081905550808273ffffffffffffffffffffffffffffffffffffffff16600073ffffffffffffffffffffffffffffffffffffffff167fddf252ad1be2c89b69c2b068fc378daa952ba7f163c4a11628f55a4df523b3ef60405160405180910390a45050565b6006805490506007600083815260200190815260200160002081905550600681908060018154018082558091505060019003906000526020600020016000909190919091505550565b600860008373ffffffffffffffffffffffffffffffffffffffff1673ffffffffffffffffffffffffffffffffffffffff168152602001908152602001600020805490506009600083815260200190815260200160002081905550600860008373ffffffffffffffffffffffffffffffffffffffff1673ffffffffffffffffffffffffffffffffffffffff1681526020019081526020016000208190806001815401808255809150506001900390600052602060002001600090919091909150555050565b82805461105b906115fe565b90600052602060002090601f01602090048101928261107d57600085556110c4565b82601f1061109657805160ff19168380011785556110c4565b828001600101855582156110c4579182015b828111156110c35782518255916020019190600101906110a8565b5b5090506110d191906110d5565b5090565b5b808211156110ee5760008160009055506001016110d6565b5090565b6000604051905090565b600080fd5b600080fd5b60007fffffffff0000000000000000000000000000000000000000000000000000000082169050919050565b61113b81611106565b811461114657600080fd5b50565b60008135905061115881611132565b92915050565b600060208284031215611174576111736110fc565b5b600061118284828501611149565b91505092915050565b60008115159050919050565b6111a08161118b565b82525050565b60006020820190506111bb6000830184611197565b92915050565b600081519050919050565b600082825260208201905092915050565b60005b838110156111fb5780820151818401526020810190506111e0565b8381111561120a576000848401525b50505050565b6000601f19601f8301169050919050565b600061122c826111c1565b61123681856111cc565b93506112468185602086016111dd565b61124f81611210565b840191505092915050565b600060208201905081810360008301526112748184611221565b905092915050565b6000819050919050565b61128f8161127c565b82525050565b60006020820190506112aa6000830184611286565b92915050565b600073ffffffffffffffffffffffffffffffffffffffff82169050919050565b60006112db826112b0565b9050919050565b6112eb816112d0565b81146112f657600080fd5b50565b600081359050611308816112e2565b92915050565b6113178161127c565b811461132257600080fd5b50565b6000813590506113348161130e565b92915050565b600080600060608486031215611353576113526110fc565b5b6000611361868287016112f9565b9350506020611372868287016112f9565b925050604061138386828701611325565b9150509250925092565b600080604083850312156113a4576113a36110fc565b5b60006113b2858286016112f9565b92505060206113c385828601611325565b9150509250929050565b6000602082840312156113e3576113e26110fc565b5b60006113f184828501611325565b91505092915050565b611403816112d0565b82525050565b600060208201905061141e60008301846113fa565b92915050565b60006020828403121561143a576114396110fc565b5b6000611448848285016112f9565b91505092915050565b600080fd5b600080fd5b7f4e487b7100000000000000000000000000000000000000000000000000000000600052604160045260246000fd5b61149382611210565b810181811067ffffffffffffffff821117156114b2576114b161145b565b5b80604052505050565b60006114c56110f2565b90506114d1828261148a565b919050565b600067ffffffffffffffff8211156114f1576114f061145b565b5b6114fa82611210565b9050602081019050919050565b82818337600083830152505050565b6000611529611524846114d6565b6114bb565b90508281526020810184848401111561154557611544611456565b5b611550848285611507565b509392505050565b600082601f83011261156d5761156c611451565b5b813561157d848260208601611516565b91505092915050565b60006020828403121561159c5761159b6110fc565b5b600082013567ffffffffffffffff8111156115ba576115b9611101565b5b6115c684828501611558565b91505092915050565b7f4e487b7100000000000000000000000000000000000000000000000000000000600052602260045260246000fd5b6000600282049050600182168061161657607f821691505b6020821081141561162a576116296115cf565b5b50919050565b7f656c20696e646963652064656c206475656e6f2065737461206675657261206460008201527f652072616e676f00000000000000000000000000000000000000000000000000602082015250565b600061168c6027836111cc565b915061169782611630565b604082019050919050565b600060208201905081810360008301526116bb8161167f565b9050919050565b7f4e487b7100000000000000000000000000000000000000000000000000000000600052603260045260246000fd5b7f456c20696e6469636520676c6f62616c2065737461206675657261206465207260008201527f616e676f00000000000000000000000000000000000000000000000000000000602082015250565b600061174d6024836111cc565b9150611758826116f1565b604082019050919050565b6000602082019050818103600083015261177c81611740565b9050919050565b7f4552433732313a20437265616e646f20656c20746f6b656e20656e206c61206460008201527f69726563696f6e20696e6578697374656e7465206f2030000000000000000000602082015250565b60006117df6037836111cc565b91506117ea82611783565b604082019050919050565b6000602082019050818103600083015261180e816117d2565b9050919050565b7f4e6f20657320656c206475656e6f2064656c20746f6b656e0000000000000000600082015250565b600061184b6018836111cc565b915061185682611815565b602082019050919050565b6000602082019050818103600083015261187a8161183e565b9050919050565b7f456c20717565207175696572652068616365722065737465206c6c616d61646f60008201527f206e6f20657320656c206475656e6f2064656c20746f6b656e00000000000000602082015250565b60006118dd6039836111cc565b91506118e882611881565b604082019050919050565b6000602082019050818103600083015261190c816118d0565b9050919050565b600081905092915050565b6000611929826111c1565b6119338185611913565b93506119438185602086016111dd565b80840191505092915050565b600061195b828461191e565b915081905092915050565b7f4572726f72202d204b727970746f426972642079612065786973746500000000600082015250565b600061199c601c836111cc565b91506119a782611966565b602082019050919050565b600060208201905081810360008301526119cb8161198f565b9050919050565b7f4e487b7100000000000000000000000000000000000000000000000000000000600052601160045260246000fd5b6000611a0c8261127c565b9150611a178361127c565b925082821015611a2a57611a296119d2565b5b828203905092915050565b7f456c20746f6b656e206e6f206578697374650000000000000000000000000000600082015250565b6000611a6b6012836111cc565b9150611a7682611a35565b602082019050919050565b60006020820190508181036000830152611a9a81611a5e565b9050919050565b7f4552524f52202d204e6f2073652070756564652074726e61666572697220612060008201527f6c6120646972656363696f6e2030000000000000000000000000000000000000602082015250565b6000611afd602e836111cc565b9150611b0882611aa1565b604082019050919050565b60006020820190508181036000830152611b2c81611af0565b9050919050565b7f446972656363696f6e20696e636f727265637461000000000000000000000000600082015250565b6000611b696014836111cc565b9150611b7482611b33565b602082019050919050565b60006020820190508181036000830152611b9881611b5c565b9050919050565b6000611baa8261127c565b9150611bb58361127c565b9250827fffffffffffffffffffffffffffffffffffffffffffffffffffffffffffffffff03821115611bea57611be96119d2565b5b828201905092915050565b7f4552433732313a20456c20746f6b656e20796120657869737465000000000000600082015250565b6000611c2b601a836111cc565b9150611c3682611bf5565b602082019050919050565b60006020820190508181036000830152611c5a81611c1e565b905091905056fea2646970667358221220b3edef2b8ccff5a43235ed128e092766aaa2368849d0f76e1623cb6676b805e564736f6c634300080a0033",
  "immutableReferences": {},
  "source": "// SPDX-License-Identifier: MIT\r\npragma solidity ^0.8.0;\r\n\r\n\r\nimport './ERC721Connector.sol';\r\n\r\ncontract KryptoBird is ERC721Connector {\r\n\r\n    //array para guardar NFTs\r\n\r\n    string [] public kryptoBirdz;\r\n\r\n    mapping(string => bool) _kryptoBirdzExists;\r\n\r\n    function mint (string memory _kryptoBird) public {\r\n\r\n      require(!_kryptoBirdzExists[_kryptoBird],'Error - KryptoBird ya existe');\r\n      \r\n       //es anticuado  uint _id=kryptoBirdz.push(_kryptoBird);\r\n\r\n       kryptoBirdz.push(_kryptoBird);\r\n       uint _id = kryptoBirdz.length - 1; \r\n\r\n       _mint(msg.sender, _id);\r\n\r\n       _kryptoBirdzExists[_kryptoBird]=true;\r\n    }\r\n\r\n    constructor ()  ERC721Connector('KryptoBird','KBIRDZ') \r\n    \r\n    {\r\n\r\n\r\n    }\r\n\r\n\r\n}\r\n\r\n",
  "sourcePath": "D:\\AAAcursos\\NFTs\\nft_marketplace-My_Code\\src\\contracts\\KryptoBirdz.sol",
  "compiler": {
    "name": "solc",
    "version": "0.8.10+commit.fc410830.Emscripten.clang"
  },
  "schemaVersion": "3.4.3",
  "updatedAt": "2021-11-28T20:24:12.693Z",
  "networkType": "ethereum",
  "devdoc": {
    "kind": "dev",
    "methods": {
      "supportsInterface(bytes4)": {
        "details": "Interface identification is specified in ERC-165. This function  uses less than 30,000 gas.",
        "params": {
          "interfaceID": "The interface identifier, as specified in ERC-165"
        },
        "returns": {
          "_0": "`true` if the contract implements `interfaceID` and  `interfaceID` is not 0xffffffff, `false` otherwise"
        }
      }
    },
    "version": 1
  },
  "userdoc": {
    "kind": "user",
    "methods": {
      "supportsInterface(bytes4)": {
        "notice": "Query if a contract implements an interface"
      }
    },
    "version": 1
  }
}